{
  "_format": "hh-sol-artifact-1",
  "contractName": "June",
  "sourceName": "contracts/June.sol",
  "abi": [
    {
      "inputs": [],
      "stateMutability": "nonpayable",
      "type": "constructor"
    },
    {
      "inputs": [
        {
          "internalType": "string",
          "name": "name",
          "type": "string"
        },
        {
          "internalType": "string",
          "name": "course",
          "type": "string"
        },
        {
          "internalType": "string",
          "name": "usn",
          "type": "string"
        },
        {
          "internalType": "string",
          "name": "credits",
          "type": "string"
        }
      ],
      "name": "addStudent",
      "outputs": [],
      "stateMutability": "payable",
      "type": "function"
    },
    {
      "inputs": [],
      "name": "getStudents",
      "outputs": [
        {
          "components": [
            {
              "internalType": "string",
              "name": "name",
              "type": "string"
            },
            {
              "internalType": "string",
              "name": "course",
              "type": "string"
            },
            {
              "internalType": "string",
              "name": "usn",
              "type": "string"
            },
            {
              "internalType": "uint256",
              "name": "completionTimestamp",
              "type": "uint256"
            },
            {
              "internalType": "string",
              "name": "credits",
              "type": "string"
            },
            {
              "internalType": "address",
              "name": "studentAddress",
              "type": "address"
            }
          ],
          "internalType": "struct June.Student[]",
          "name": "",
          "type": "tuple[]"
        }
      ],
      "stateMutability": "view",
      "type": "function"
    }
  ],
  "bytecode": "0x608060405234801561001057600080fd5b5033600160006101000a81548173ffffffffffffffffffffffffffffffffffffffff021916908373ffffffffffffffffffffffffffffffffffffffff160217905550610ca4806100616000396000f3fe6080604052600436106100295760003560e01c8063f1323c241461002e578063f1d064b31461004a575b600080fd5b6100486004803603810190610043919061065e565b610075565b005b34801561005657600080fd5b5061005f6101fd565b60405161006c919061096e565b60405180910390f35b600160009054906101000a900473ffffffffffffffffffffffffffffffffffffffff1673ffffffffffffffffffffffffffffffffffffffff166108fc349081150290604051600060405180830381858888f193505050501580156100dd573d6000803e3d6000fd5b5060006040518060c001604052808681526020018581526020018481526020014281526020018381526020013373ffffffffffffffffffffffffffffffffffffffff16815250908060018154018082558091505060019003906000526020600020906006020160009091909190915060008201518160000190816101619190610b9c565b5060208201518160010190816101779190610b9c565b50604082015181600201908161018d9190610b9c565b506060820151816003015560808201518160040190816101ad9190610b9c565b5060a08201518160050160006101000a81548173ffffffffffffffffffffffffffffffffffffffff021916908373ffffffffffffffffffffffffffffffffffffffff160217905550505050505050565b60606000805480602002602001604051908101604052809291908181526020016000905b828210156104fb57838290600052602060002090600602016040518060c0016040529081600082018054610254906109bf565b80601f0160208091040260200160405190810160405280929190818152602001828054610280906109bf565b80156102cd5780601f106102a2576101008083540402835291602001916102cd565b820191906000526020600020905b8154815290600101906020018083116102b057829003601f168201915b505050505081526020016001820180546102e6906109bf565b80601f0160208091040260200160405190810160405280929190818152602001828054610312906109bf565b801561035f5780601f106103345761010080835404028352916020019161035f565b820191906000526020600020905b81548152906001019060200180831161034257829003601f168201915b50505050508152602001600282018054610378906109bf565b80601f01602080910402602001604051908101604052809291908181526020018280546103a4906109bf565b80156103f15780601f106103c6576101008083540402835291602001916103f1565b820191906000526020600020905b8154815290600101906020018083116103d457829003601f168201915b5050505050815260200160038201548152602001600482018054610414906109bf565b80601f0160208091040260200160405190810160405280929190818152602001828054610440906109bf565b801561048d5780601f106104625761010080835404028352916020019161048d565b820191906000526020600020905b81548152906001019060200180831161047057829003601f168201915b505050505081526020016005820160009054906101000a900473ffffffffffffffffffffffffffffffffffffffff1673ffffffffffffffffffffffffffffffffffffffff1673ffffffffffffffffffffffffffffffffffffffff168152505081526020019060010190610221565b50505050905090565b6000604051905090565b600080fd5b600080fd5b600080fd5b600080fd5b6000601f19601f8301169050919050565b7f4e487b7100000000000000000000000000000000000000000000000000000000600052604160045260246000fd5b61056b82610522565b810181811067ffffffffffffffff8211171561058a57610589610533565b5b80604052505050565b600061059d610504565b90506105a98282610562565b919050565b600067ffffffffffffffff8211156105c9576105c8610533565b5b6105d282610522565b9050602081019050919050565b82818337600083830152505050565b60006106016105fc846105ae565b610593565b90508281526020810184848401111561061d5761061c61051d565b5b6106288482856105df565b509392505050565b600082601f83011261064557610644610518565b5b81356106558482602086016105ee565b91505092915050565b600080600080608085870312156106785761067761050e565b5b600085013567ffffffffffffffff81111561069657610695610513565b5b6106a287828801610630565b945050602085013567ffffffffffffffff8111156106c3576106c2610513565b5b6106cf87828801610630565b935050604085013567ffffffffffffffff8111156106f0576106ef610513565b5b6106fc87828801610630565b925050606085013567ffffffffffffffff81111561071d5761071c610513565b5b61072987828801610630565b91505092959194509250565b600081519050919050565b600082825260208201905092915050565b6000819050602082019050919050565b600081519050919050565b600082825260208201905092915050565b60005b8381101561079b578082015181840152602081019050610780565b60008484015250505050565b60006107b282610761565b6107bc818561076c565b93506107cc81856020860161077d565b6107d581610522565b840191505092915050565b6000819050919050565b6107f3816107e0565b82525050565b600073ffffffffffffffffffffffffffffffffffffffff82169050919050565b6000610824826107f9565b9050919050565b61083481610819565b82525050565b600060c083016000830151848203600086015261085782826107a7565b9150506020830151848203602086015261087182826107a7565b9150506040830151848203604086015261088b82826107a7565b91505060608301516108a060608601826107ea565b50608083015184820360808601526108b882826107a7565b91505060a08301516108cd60a086018261082b565b508091505092915050565b60006108e4838361083a565b905092915050565b6000602082019050919050565b600061090482610735565b61090e8185610740565b93508360208202850161092085610751565b8060005b8581101561095c578484038952815161093d85826108d8565b9450610948836108ec565b925060208a01995050600181019050610924565b50829750879550505050505092915050565b6000602082019050818103600083015261098881846108f9565b905092915050565b7f4e487b7100000000000000000000000000000000000000000000000000000000600052602260045260246000fd5b600060028204905060018216806109d757607f821691505b6020821081036109ea576109e9610990565b5b50919050565b60008190508160005260206000209050919050565b60006020601f8301049050919050565b600082821b905092915050565b600060088302610a527fffffffffffffffffffffffffffffffffffffffffffffffffffffffffffffffff82610a15565b610a5c8683610a15565b95508019841693508086168417925050509392505050565b6000819050919050565b6000610a99610a94610a8f846107e0565b610a74565b6107e0565b9050919050565b6000819050919050565b610ab383610a7e565b610ac7610abf82610aa0565b848454610a22565b825550505050565b600090565b610adc610acf565b610ae7818484610aaa565b505050565b5b81811015610b0b57610b00600082610ad4565b600181019050610aed565b5050565b601f821115610b5057610b21816109f0565b610b2a84610a05565b81016020851015610b39578190505b610b4d610b4585610a05565b830182610aec565b50505b505050565b600082821c905092915050565b6000610b7360001984600802610b55565b1980831691505092915050565b6000610b8c8383610b62565b9150826002028217905092915050565b610ba582610761565b67ffffffffffffffff811115610bbe57610bbd610533565b5b610bc882546109bf565b610bd3828285610b0f565b600060209050601f831160018114610c065760008415610bf4578287015190505b610bfe8582610b80565b865550610c66565b601f198416610c14866109f0565b60005b82811015610c3c57848901518255600182019150602085019450602081019050610c17565b86831015610c595784890151610c55601f891682610b62565b8355505b6001600288020188555050505b50505050505056fea26469706673582212208125a3a7eb88eed09fe5dc4c16fb53f6d3d8f2c7acb382113b7162169c4f62de64736f6c63430008110033",
  "linkReferences": {},
  "deployedLinkReferences": {}
}